S01000006B6F6E74726F6C6C2E737265639F
S11300000C9446000C9466000C9466000C946600F4
S11300100C9466000C9466000C9466000C946600C4
S11300200C9466000C9466000C9466000C946600B4
S11300300C9466000C9466000C9466000C946600A4
S11300400C9466000C9466000C9466000C94660094
S11300500C9466000C9466000C9466000C94660084
S11300600C9466000C9466000C9466000C94660074
S11300700C9466000C9466000C9466000C94660064
S11300800C9466000C9466000C94660011241FBE48
S1130090CFEFD0E4DEBFCDBF11E0A0E0B1E0EAE7EE
S11300A0F1E000E00BBF02C007900D92A030B10751
S11300B0D9F71BBE11E0A0E0B1E001C01D92A03051
S11300C0B107E1F70E947D000C94BB000C94000082
S11300D0ECE7F0E09081907690839081892B808387
S11300E0EAE7F0E0808180648083808186FDFDCF33
S11300F080917800909179000895EAE7F0E080819A
S1130100806880830A980B980F9A0E9A0D9A0C9A1D
S1130110029B03C0179A169A14C080E00E946800DC
S113012023E08130920710F0179A0BC080E00E9400
S113013068008F3F910509F010F4169A02C01798D1
S11301401698039B03C0159A149AE2CF81E00E948B
S1130150680023E08130920710F0149AD9CF81E02F
S11301600E9468008F3F910509F010F4159AD0CFD2
S10D017015981498CDCFF894FFCF32
S9030000FC
