S01000006B6F6E74726F6C6C2E737265639F
S11300000C945D000C947D000C9436010C944C010E
S11300100C947D000C947D000C947D000C947D0068
S11300200C947D000C947D000C947D000C947D0058
S11300300C947D000C947D000C947D000C947D0048
S11300400C947D000C947D000C947D000C947D0038
S11300500C947D000C947D000C947D000C947D0028
S11300600C947D000C947D000C947D000C947D0018
S11300700C947D000C947D000C947D000C947D0008
S11300800C947D000C947D000C947D00084AD73BB1
S11300903BCE016E84BCBFFDC12F3D6C74319ABD53
S11300A056833DDA3D00C77F11BED9E4BB4C3E9177
S11300B06BAAAABE000000803F0011241FBECFEF30
S11300C0D0E4DEBFCDBF11E0A0E0B1E0E0E8F2E1B2
S11300D000E00BBF02C007900D92A630B107D9F71C
S11300E01BBE11E0A6E0B1E001C01D92A132B10730
S11300F0E1F70E94F3050C943E090C9400009093E0
S1130100CD008093CC0088E18093C9008EE0809379
S1130110CA000895E8ECF0E080818823ECF7809130
S1130120CE000895CF92DF92EF92FF920F931F9328
S1130130CF93DF93CDB7DEB7AC970FB6F894DEBF9D
S11301400FBECDBF8CE28CA70F2EF0E0CF2EF1E0D6
S1130150DF2EF02D0F2EF6E0EF2EFF24F02DEC0E07
S1130160FD1E10C00E948A008432E1F78E010F5FE9
S11301701F4F0E948A00F80181938F01EE15FF053D
S1130180C1F71E82CE010196B6010E940709282FED
S1130190392F2115310531F78E01095F1F4F0F2EBD
S11301A0FBE2EF2EFF24F02DEC0EFD1E0E948A00D0
S11301B0F80181938F01EE15FF05C1F71BA6CE014F
S11301C00796BE01645D7F4F0E940209CE01079627
S11301D060E070E00E940209FC0180818635E1F054
S11301E0CE01079660E070E00E940209BC0182E142
S11301F091E00E941009CE01079660E070E00E9431
S11302000209CE01079660E070E00E940209BC0179
S113021088E091E00E941009AC960FB6F894DEBF16
S11302200FBECDBFDF91CF911F910F91FF90EF9043
S1130230DF90CF900895E998E9E6F0E080818B7F24
S11302408083E99A0895E998E9E6F0E080818C607A
S11302508083E99A0895EA98E9E6F0E08081806174
S1130260808380818F7D8083EA9A08951F920F9204
S11302700FB60F9211248F9380911B01813019F4D2
S113028010921B0103C081E080931B018F910F909A
S11302900FBE0F901F9018951F920F920FB60F92DA
S11302A011248F9380911C01882329F481E0809389
S11302B01C01299A03C010921C0129988F910F9058
S11302C00FBE0F901F9018959093C5008093C400A3
S11302D088E18093C1008EE08093C20008950A9A59
S11302E00B9A129A139A209A289A219A5198529802
S11302F0599A5A9AEAE7F0E080818068808383E320
S113030090E00E94640183E390E00E947F001092D9
S11303101B011A9B04C010921C01299804C081E09F
S113032080931C01299A0E9423010E942B01789436
S11303300895E0ECF0E0908195FFFDCF8093C60036
S11303400895E0ECF0E080818823ECF78091C6000A
S11303500895ECE7F0E09081907690839081892B6A
S11303608083EAE7F0E0808180648083808186FD79
S1130370FDCF8091780090917900089580E00E94EB
S1130380A90123E0803C9207A0F523E0813892077D
S113039098F523E08134920790F523E081309207A9
S11303A088F522E0813C920780F522E081389207AB
S11303B078F522E08134920770F58134910570F16B
S11303C08038910570F1803C910570F18F3F910563
S11303D071F168F121E08034920760F121E0803806
S11303E0920758F121E0803C920750F58FEF9FEF80
S11303F0089587E090E0089586E090E0089585E010
S113040090E0089584E090E0089583E090E00895FA
S113041082E090E0089581E090E0089589EF9FEFF5
S113042008958AEF9FEF08958BEF9FEF08958CEF67
S11304309FEF08958DEF9FEF08958EEF9FEF08953E
S113044080E090E0089581E00E94A90123E0803CCF
S11304509207B0F543E081389407A8F523E081348E
S11304609207A0F543E08130940798F522E0813C9F
S1130470920790F542E08138940788F522E08134B0
S1130480920780F58134910580F18038910580F1DF
S1130490803C910580F18F3F910581F178F141E035
S11304A08034940770F121E08038920768F121E0EC
S11304B030E041E0803C940748F120E030E026C081
S11304C029EF3FEF23C02AEF3FEF20C02BEF3FEF90
S11304D01DC02CEF3FEF1AC02DEF3FEF17C02EEFDA
S11304E03FEF14C02FEF3FEF11C027E030E00EC004
S11304F026E030E00BC025E030E008C024E030E026
S113050005C023E030E002C022E030E0822F932FC8
S11305100895CF92DF92EF92FF92CF93DF93EC0195
S11305206A017B01CB01BA0124EE3BEC46E150E4C5
S11305300E944E07181664F0C701B6012BED3FE088
S113054049E45FEB0E949108882314F0188202C0EA
S113055081E08883C701B6012BED3FE049E45FE306
S11305600E944E0718166CF0C701B60124EE3BEC4E
S113057046E150EC0E94910888231CF081E08983B5
S113058001C01982DF91CF91FF90EF90DF90CF905F
S113059008956F927F928F929F92AF92BF92CF9263
S11305A0DF92EF92FF920F931F93CF93DF933C015F
S11305B06A017B01C22FD32FCB01BA0120E030E0C6
S11305C0A9010E9491088823D4F1C701B6012BED3B
S11305D03FE049E45FE30E944E07882384F56C2FD3
S11305E07D2F77231CF4709561957F4F882777FDC5
S11305F08095982F0E94BC074B015C01F301628334
S1130600738384839583C701B6012BED3FE049E4EE
S11306105FE30E9452079B01AC0160E070E080E858
S11306209FE30E948706A50194010E949C08DC01B7
S1130630CB01F30186839783A087B187CDC1C7011E
S1130640B6012BED3FE049E45FE30E949108882363
S1130650C4F1C701B6012BED3FE049EC5FE30E9412
S11306604E07882374F5602F712F77231CF470953F
S113067061957F4F882777FD8095982F0E94BC074E
S11306804B015C01F3016283738384839583C70107
S1130690B6012BED3FE049E45FE30E9487062BEDB2
S11306A03FE049E45FE30E945207A50194010E94E0
S11306B09C08DC01CB01F30186839783A087B18773
S11306C08BC1C701B6012BED3FE049EC5FE30E940B
S11306D0910888230CF440C0C701B60124EE3BEC1A
S11306E046E150E40E944E078823B4F5602F712F31
S11306F077231CF4709561957F4F882777FD80954B
S1130700982F0E94BC074B015C01F3016683778339
S113071080879187C701B6012BED3FE049EC5FE389
S11307200E9487062BED3FE049E45FE30E945207F5
S11307309B01AC0160E070E080E89FE30E948706C3
S1130740A50194010E949C08DC01CB01F301828382
S11307509383A483B58340C1C701B60124EE3BEC67
S113076046E150E40E9491088823C4F1C701B60110
S11307702BED3FE049E450E40E944E07181674F153
S11307806C2F7D2F77231CF4709561957F4F8827FC
S113079077FD8095982F0E94BC074B015C01F30103
S11307A06683778380879187C701B60124EE3BEC8B
S11307B046E150E40E9487062BED3FE049E45FE305
S11307C00E945207A50194010E949C08DC01CB0100
S11307D0F30182839383A483B583FEC0C701B6016A
S11307E020E030E0A9010E944E078823C4F5C70128
S11307F0B6012BED3FE049E45FEB0E949108181627
S113080074F56C2F7D2F77231CF4709561957F4FC1
S1130810882777FD8095982F0E94BC074B015C01C7
S1130820F3016683778380879187C701B6012BED37
S11308303FE049E45FE30E94520720E030E040E8F3
S11308405FE30E948806A50194010E949C08DC01D4
S1130850CB01F30182839383A483B583BDC0C70115
S1130860B6012BED3FE049E45FEB0E944E071816FA
S1130870CCF1C701B6012BED3FE049EC5FEB0E94E0
S1130880910818167CF5602F712F77231CF470954E
S113089061957F4F882777FD8095982F0E94BC072C
S11308A04B015C01F3016683778380879187C701DD
S11308B0B60190582BED3FE049E45FE30E948706C0
S11308C02BED3FE049E45FE30E945207A501940148
S11308D00E949C08DC01CB01F30182839383A483EF
S11308E0B5837AC0C701B6012BED3FE049EC5FEB5D
S11308F00E944E0718160CF441C0C701B60124EE3D
S11309003BEC46E150EC0E9491081816BCF5602FB0
S1130910712F77231CF4709561957F4F882777FD9D
S11309208095982F0E94BC074B015C01F301628300
S1130930738384839583C701B60190582BED3FE000
S113094049EC5FE30E9487062BED3FE049E45FE357
S11309500E9452079B01AC0160E070E080E89FE3D5
S11309600E948706A50194010E949C08DC01CB012A
S1130970F30186839783A087B1872EC06C2F7D2FC8
S113098077231CF4709561957F4F882777FD8095B8
S1130990982F0E94BC074B015C01F30162837383AF
S11309A084839583C701B601905824EE3BEC46E15D
S11309B050E40E9487062BED3FE049E45FE30E9488
S11309C05207A50194010E949C08DC01CB01F301AC
S11309D086839783A087B187DF91CF911F910F9171
S11309E0FF90EF90DF90CF90BF90AF909F908F904B
S11309F07F906F900895CF92DF92EF92FF920F93C2
S1130A001F93CF938C01FC01C280D380E480F580D6
S1130A10C701B60120E030E040ED50E40E949108A7
S1130A2088230CF03FC0C701B60120E030E040EB62
S1130A3050E40E9491088823BCF5C701B60120E068
S1130A4030E040E950E40E94910888237CF5C70116
S1130A50B60120E030E040E650E40E94910888238B
S1130A603CF5C701B60120E030E040E250E40E94CA
S1130A7091088823FCF4C701B60120E030E040EC83
S1130A805FE30E9491088823BCF4C1E0C701B6016A
S1130A9020E030E040E05FE30E94910888236CF49A
S1130AA0C0E00BC0C7E009C0C6E007C0C5E005C090
S1130AB0C4E003C0C3E001C0C2E0C295C07FF80136
S1130AC0C680D780E084F184C701B60120E030E01D
S1130AD040ED50E40E949108882314F0C76047C099
S1130AE0C701B60120E030E040EB50E40E949108D9
S1130AF0882314F0C6603BC0C701B60120E030E093
S1130B0040E950E40E949108882314F0C5602FC086
S1130B10C701B60120E030E040E650E40E949108AD
S1130B20882314F0C46023C0C701B60120E030E07C
S1130B3040E250E40E949108882314F0C36017C077
S1130B40C701B60120E030E040EC5FE30E94910869
S1130B50882314F0C2600BC0C701B60120E030E066
S1130B6040E05FE30E94910888230CF0C160F80123
S1130B708081882309F4C068F8018181882309F4FD
S1130B80C8608C2FCF911F910F91FF90EF90DF9051
S1130B90CF900895F8940E941B01129813982898F6
S1130BA029980A980B982098219883B7817F8460AC
S1130BB083BF83B7816083BF10927A0088E10FB648
S1130BC0F89480936000109260000FBE85B7806631
S1130BD085BF8F7D85BF7894889583B78E7F83BFCB
S1130BE00E946F010895CF93DF93CDB7DEB72A97A4
S1130BF00FB6F894DEBF0FBECDBF0E946F010F2E5B
S1130C00F2E16F2EF1E07F2EF02D0F2EF9E0CF2EC2
S1130C10DD24F02DC60CD71C0F2EF8E04F2EF1E08A
S1130C205F2EF02D0F2EFAE0EF2EFF24F02DE40CB2
S1130C30F51C80911C018823E1F50E94BE0190936C
S1130C401E0180931D010E94230290932001809332
S1130C501F019C01B901882777FD8095982F0E9478
S1130C60BC074B015C0160911D0170911E01882736
S1130C7077FD8095982F0E94BC079B01AC01C501AC
S1130C80B4010E94FB064B015C01CE010196B50143
S1130C90A4010E94890220911D0130911E0100913E
S1130CA01F0110912001CE010196B501A4010E94FB
S1130CB0C9020E9492008301D8018D918D010E9486
S1130CC099010C151D05C1F78FE39DE0A3E0815048
S1130CD09040A040E1F700C000008201D8018D914E
S1130CE08D010E9499010E151F05C1F78FE39DE048
S1130CF0A3E081509040A040E1F700C00000809143
S1130D001B01813009F095CF0E94CA0592CF50583B
S1130D10BB27AA270ED0CBC1BCD130F0C1D120F063
S1130D2031F49F3F11F41EF48CC10EF4E095E7FBFF
S1130D3082C1E92FCDD180F3BA1762077307840704
S1130D40950718F071F49EF5E5C10EF4E0950B2EAD
S1130D50BA2FA02D0B01B90190010C01CA01A00109
S1130D601124FF27591B99F0593F50F4503E68F164
S1130D701A16F040A22F232F342F4427585FF3CFA5
S1130D80469537952795A795F0405395C9F77EF476
S1130D901F16BA0B620B730B840BBAF09150A1F0BF
S1130DA0FF0FBB1F661F771F881FC2F70EC0BA0F45
S1130DB0621F731F841F48F4879577956795B795CD
S1130DC0F7959E3F08F0B3CF9395880F08F09927C5
S1130DD0EE0F9795879508955CD158F080E891E0DF
S1130DE009F49EEF5DD128F040E851E059F45EEF3C
S1130DF009C027C18FC1E92FE0786AD168F3092EB1
S1130E00052AC1F3261737074807590738F00E2E6D
S1130E1007F8E02569F0E025E0640AC0EF6307F80D
S1130E20009407FADB01B9019D01DC01CA01AD019F
S1130E30EF9347D03CD10AD05F91552331F02BED8D
S1130E403FE049E450FD49EC63CF0895DF93DD278B
S1130E50B92FBF7740E85FE31616170648075B070C
S1130E6010F4D92F62D19F938F937F936F93C7D13F
S1130E70ECE8F0E0E9D01BD12F913F914F915F91C5
S1130E8067D1DD2349F09058A2EA2AED3FE049EC0E
S1130E905FE3D0785D274DDFDF9109C1A8D008F466
S1130EA081E008950CD003C1FBD040F0F2D030F0C3
S1130EB021F45F3F19F0BFC051112DC1C2C008D148
S1130EC098F39923C9F35523B1F3951B550BBB270D
S1130ED0AA2762177307840738F09F5F5F4F220FBA
S1130EE0331F441FAA1FA9F333D00E2E3AF0E0E8B3
S1130EF030D091505040E695001CCAF729D0FE2FFF
S1130F0027D0660F771F881FBB1F26173707480790
S1130F10AB07B0E809F0BB0B802DBF01FF27935846
S1130F205F4F2AF09E3F510568F085C0F4C05F3FD3
S1130F30ECF3983EDCF3869577956795B795F7952E
S1130F409F5FC9F7880F911D9695879597F9089526
S1130F50E1E0660F771F881FBB1F621773078407C2
S1130F60BA0720F0621B730B840BBA0BEE1F88F7D1
S1130F70E0950895E89409C097FB3EF49095809518
S1130F80709561957F4F8F4F9F4F9923A9F0F92F4B
S1130F9096E9BB279395F695879577956795B795C9
S1130FA0F111F8CFFAF4BB0F11F460FF1BC06F5FAF
S1130FB07F4F8F4F9F4F16C0882311F096E911C0C1
S1130FC0772321F09EE8872F762F05C0662371F0E2
S1130FD096E8862F70E060E02AF09A95660F771FF6
S1130FE0881FDAF7880F9695879597F90895990FD2
S1130FF00008550FAA0BE0E8FEEF16161706E807DF
S1131000F907C0F012161306E407F50798F0621BFF
S1131010730B840B950B39F40A2661F0232B242BD4
S1131020252B21F408950A2609F4A140A6958FEFF3
S1131030811D811D089597F99F6780E870E060E045
S113104008959FEF80EC0895DF93CF931F930F9340
S1131050FF92EF92DF927B018C01689405C0DA2E37
S1131060EF0176D0FE01E894A59125913591459143
S11310705591AEF3EF015DDEFE019701A801DA940C
S113108079F7DF90EF90FF900F911F91CF91DF914F
S1131090089500240A9416161706180609060895DA
S11310A000240A9412161306140605060895092E40
S11310B00394000C11F4882352F0BB0F40F4BF2BAF
S11310C011F460FF04C06F5F7F4F8F4F9F4F0895EF
S11310D057FD9058440F551F59F05F3F71F04795E5
S11310E0880F97FB991F61F09F3F79F087950895CA
S11310F0121613061406551FF2CF4695F1DF08C0E9
S1131100161617061806991FF1CF86957105610505
S113111008940895E894BB2766277727CB0197F9AD
S1131120089565DF08F48FEF08959B01AC0160E03A
S113113070E080E89FE3B6CE0BD0B9CFAADF28F0E9
S1131140AFDF18F0952309F076CF7BCF1124E3CFDE
S1131150BFDFA0F3959FD1F3950F50E0551F629F19
S1131160F001729FBB27F00DB11D639FAA27F00DFC
S1131170B11DAA1F649F6627B00DA11D661F829F23
S11311802227B00DA11D621F739FB00DA11D621F08
S1131190839FA00D611D221F749F3327A00D611D25
S11311A0231F849F600D211D822F762F6A2F112407
S11311B09F5750408AF0E1F088234AF0EE0FFF1F5A
S11311C0BB1F661F771F881F91505040A9F79E3F91
S11311D0510570F030CF9FCF5F3FECF3983EDCF3C6
S11311E0869577956795B795F795E7959F5FC1F7CE
S11311F0FE2B880F911D9695879597F908959B016D
S1131200AC019ACF46E051E00E9417090895FB0112
S1131210DC018D91019080190110D9F3990B089587
S1131220FB01DC0101900D920020E1F70895FA0121
S1131230A191B081009719F41097E1F0CD01DC0180
S1131240CD010D90002011F4C00113C0FB012191C8
S1131250222319F02015D9F7F3CFFB012191201592
S113126019F41E92119606C02223C1F70D90002096
S1131270A1F7D001FA01A193B0830895F894FFCFA8
S10912804750524D4300EB
S9030000FC
