:100000000C945D000C947D000C9442010C945801FA
:100010000C947D000C947D000C947D000C947D006C
:100020000C947D000C947D000C947D000C947D005C
:100030000C947D000C947D000C947D000C947D004C
:100040000C947D000C947D000C947D000C947D003C
:100050000C947D000C947D000C947D000C947D002C
:100060000C947D000C947D000C947D000C947D001C
:100070000C947D000C947D000C947D000C947D000C
:100080000C947D000C947D000C947D00084AD73BB5
:100090003BCE016E84BCBFFDC12F3D6C74319ABD57
:1000A00056833DDA3D00C77F11BED9E4BB4C3E917B
:1000B0006BAAAABE000000803F0011241FBECFEF34
:1000C000D0E4DEBFCDBF11E0A0E0B1E0EAEDF1E1A8
:1000D00000E00BBF02C007900D92A630B107D9F720
:1000E0001BBE11E0A6E0B1E001C01D92AF31B10727
:1000F000E1F70E94FF050C94EB080C94000090932C
:10010000CD008093CC0088E18093C9008EE080937D
:10011000CA000895E8ECF0E080818823ECF7809134
:10012000CE0008954F925F926F927F928F929F922E
:10013000AF92BF92CF92DF92FF920F931F93CF9314
:10014000DF9300D000D000D0CDB7DEB70F2EFAE09D
:10015000AF2EBB24F02D0F2EF6E0CF2EDD24F02D98
:10016000CC0EDD1E0F2EF0E08F2EF1E09F2EF02D35
:100170000F2EFCE06F2E7724F02D0F2EF8E14F2E7E
:100180005524F02D49C00E948A00F82E84E2F8160A
:10019000D1F78E010F5F1F4F0E948A00F8018193F3
:1001A0008F01EC15FD05C1F71E82CE010196B40149
:1001B0000E94E208282F392F2115310539F5898150
:1001C00090E00E94A5018A8190E00E94A5018B81A8
:1001D00090E00E94A5018C8190E00E94A5018D8194
:1001E00090E00E94A50183010E948A000150104006
:1001F000D9F782010E948A0090E00E94A501015077
:100200001040C1F78DE090E00E94A5010894A1087C
:10021000B108A114B10429F0F4E2FF1609F0B3CF3C
:10022000B8CF26960FB6F894DEBF0FBECDBFDF91D4
:10023000CF911F910F91FF90DF90CF90BF90AF9023
:100240009F908F907F906F905F904F900895E99866
:10025000E9E6F0E080818B7F8083E99A0895E99850
:10026000E9E6F0E080818C608083E99A0895EA985D
:10027000E9E6F0E080818061808380818F7D8083EA
:10028000EA9A08951F920F920FB60F9211248F933E
:1002900080911901813019F41092190103C081E095
:1002A000809319018F910F900FBE0F901F9018959A
:1002B0001F920F920FB60F9211248F9380911A0103
:1002C000882329F481E080931A01299A03C01092AF
:1002D0001A0129988F910F900FBE0F901F901895BB
:1002E0009093C5008093C40088E18093C1008EE0A4
:1002F0008093C20008950A9A0B9A129A139A209A30
:10030000289A219A51985298599A5A9AEAE7F0E015
:1003100080818068808383E390E00E94700183E3A2
:1003200090E00E947F00109219011A9B04C0109265
:100330001A01299804C081E080931A01299A0E9429
:100340002F010E94370178940895E0ECF0E090814D
:1003500095FFFDCF8093C6000895E0ECF0E080812A
:100360008823ECF78091C6000895ECE7F0E09081D7
:10037000907690839081892B8083EAE7F0E08081FA
:1003800080648083808186FDFDCF8091780090918C
:100390007900089580E00E94B50123E0803C920737
:1003A000A0F523E08138920798F523E08134920785
:1003B00090F523E08130920788F522E0813C920796
:1003C00080F522E08138920778F522E081349207A7
:1003D00070F58134910570F18038910570F1803CA1
:1003E000910570F18F3F910571F168F121E0803442
:1003F000920760F121E08038920758F121E0803CBB
:10040000920750F58FEF9FEF089587E090E00895F1
:1004100086E090E0089585E090E0089584E090E023
:10042000089583E090E0089582E090E0089581E0EF
:1004300090E0089589EF9FEF08958AEF9FEF089568
:100440008BEF9FEF08958CEF9FEF08958DEF9FEF57
:1004500008958EEF9FEF089580E090E0089581E089
:100460000E94B50123E0803C9207B0F543E081385B
:100470009407A8F523E081349207A0F543E081308A
:10048000940798F522E0813C920790F542E081388C
:10049000940788F522E08134920780F58134910534
:1004A00080F18038910580F1803C910580F18F3F8B
:1004B000910581F178F141E08034940770F121E0F9
:1004C0008038920768F121E030E041E0803C9407F9
:1004D00048F120E030E026C029EF3FEF23C02AEFAB
:1004E0003FEF20C02BEF3FEF1DC02CEF3FEF1AC0B6
:1004F0002DEF3FEF17C02EEF3FEF14C02FEF3FEF70
:1005000011C027E030E00EC026E030E00BC025E04F
:1005100030E008C024E030E005C023E030E002C055
:1005200022E030E0822F932F0895CF92DF92EF9256
:10053000FF92CF93DF93EC016A017B01CB01BA01FB
:1005400024EE3BEC46E150E40E942E07181664F0BE
:10055000C701B6012BED3FE049E45FEB0E94710853
:10056000882314F0188202C081E08883C701B60195
:100570002BED3FE049E45FE30E942E0718166CF074
:10058000C701B60124EE3BEC46E150EC0E94710835
:1005900088231CF081E0898301C01982DF91CF910B
:1005A000FF90EF90DF90CF9008956F927F928F929F
:1005B0009F92AF92BF92CF92DF92EF92FF920F93F2
:1005C0001F93CF93DF933C016A017B01C22FD32F8E
:1005D000CB01BA0120E030E0A9010E947108882314
:1005E000D4F1C701B6012BED3FE049E45FE30E947F
:1005F0002E07882384F56C2F7D2F77231CF47095AC
:1006000061957F4F882777FD8095982F0E949C07E2
:100610004B015C01F3016283738384839583C7017B
:10062000B6012BED3FE049E45FE30E9432079B01F6
:10063000AC0160E070E080E89FE30E946706A501DE
:1006400094010E947C08DC01CB01F301868397832F
:10065000A087B187CDC1C701B6012BED3FE049E4CA
:100660005FE30E9471088823C4F1C701B6012BED36
:100670003FE049EC5FE30E942E07882374F5602F6A
:10068000712F77231CF4709561957F4F882777FD34
:100690008095982F0E949C074B015C01F3016283B7
:1006A000738384839583C701B6012BED3FE049E452
:1006B0005FE30E9467062BED3FE049E45FE30E94A1
:1006C0003207A50194010E947C08DC01CB01F301F3
:1006D00086839783A087B1878BC1C701B6012BEDB5
:1006E0003FE049EC5FE30E94710888230CF440C0AE
:1006F000C701B60124EE3BEC46E150E40E942E0710
:100700008823B4F5602F712F77231CF470956195C1
:100710007F4F882777FD8095982F0E949C074B017B
:100720005C01F3016683778380879187C701B601F7
:100730002BED3FE049EC5FE30E9467062BED3FE0C5
:1007400049E45FE30E9432079B01AC0160E070E086
:1007500080E89FE30E946706A50194010E947C083F
:10076000DC01CB01F30182839383A483B58340C171
:10077000C701B60124EE3BEC46E150E40E9471084B
:100780008823C4F1C701B6012BED3FE049E450E4F2
:100790000E942E07181674F16C2F7D2F77231CF4FE
:1007A000709561957F4F882777FD8095982F0E94DF
:1007B0009C074B015C01F3016683778380879187F7
:1007C000C701B60124EE3BEC46E150E40E94670607
:1007D0002BED3FE049E45FE30E943207A50194015D
:1007E0000E947C08DC01CB01F30182839383A48304
:1007F000B583FEC0C701B60120E030E0A9010E9428
:100800002E078823C4F5C701B6012BED3FE049E46C
:100810005FEB0E947108181674F56C2F7D2F7723FB
:100820001CF4709561957F4F882777FD8095982FF0
:100830000E949C074B015C01F301668377838087EC
:100840009187C701B6012BED3FE049E45FE30E94C9
:10085000320720E030E040E85FE30E946806A5012F
:1008600094010E947C08DC01CB01F3018283938315
:10087000A483B583BDC0C701B6012BED3FE049E4B9
:100880005FEB0E942E071816CCF1C701B6012BEDC5
:100890003FE049EC5FEB0E94710818167CF5602F71
:1008A000712F77231CF4709561957F4F882777FD12
:1008B0008095982F0E949C074B015C01F301668391
:1008C000778380879187C701B60190582BED3FE071
:1008D00049E45FE30E9467062BED3FE049E45FE3F4
:1008E0000E943207A50194010E947C08DC01CB0123
:1008F000F30182839383A483B5837AC0C701B601D1
:100900002BED3FE049EC5FEB0E942E0718160CF42C
:1009100041C0C701B60124EE3BEC46E150EC0E9419
:1009200071081816BCF5602F712F77231CF4709591
:1009300061957F4F882777FD8095982F0E949C07AF
:100940004B015C01F3016283738384839583C70148
:10095000B60190582BED3FE049EC5FE30E9467063B
:100960002BED3FE049E45FE30E9432079B01AC01BD
:1009700060E070E080E89FE30E946706A5019401B3
:100980000E947C08DC01CB01F30186839783A0875A
:10099000B1872EC06C2F7D2F77231CF47095619545
:1009A0007F4F882777FD8095982F0E949C074B01E9
:1009B0005C01F3016283738384839583C701B6016D
:1009C000905824EE3BEC46E150E40E9467062BED84
:1009D0003FE049E45FE30E943207A50194010E94D1
:1009E0007C08DC01CB01F30186839783A087B18764
:1009F000DF91CF911F910F91FF90EF90DF90CF90FB
:100A0000BF90AF909F908F907F906F900895CF92FE
:100A1000DF92EF92FF920F931F93CF938C01FC0113
:100A2000C280D380E480F580C701B60120E030E0C9
:100A300040ED50E40E94710888230CF03FC0C701CC
:100A4000B60120E030E040EB50E40E9471088823BA
:100A5000BCF5C701B60120E030E040E950E40E9457
:100A6000710888237CF5C701B60120E030E040E63C
:100A700050E40E94710888233CF5C701B60120E0CC
:100A800030E040E250E40E9471088823FCF4C70182
:100A9000B60120E030E040EC5FE30E94710888235B
:100AA000BCF4C1E0C701B60120E030E040E05FE304
:100AB0000E94710888236CF4C0E00BC0C7E009C035
:100AC000C6E007C0C5E005C0C4E003C0C3E001C084
:100AD000C2E0C295C07FF801C680D780E084F1846F
:100AE000C701B60120E030E040ED50E40E947108FB
:100AF000882314F0C76047C0C701B60120E030E08A
:100B000040EB50E40E947108882314F0C6603BC09B
:100B1000C701B60120E030E040E950E40E947108CE
:100B2000882314F0C5602FC0C701B60120E030E073
:100B300040E650E40E947108882314F0C46023C08A
:100B4000C701B60120E030E040E250E40E947108A5
:100B5000882314F0C36017C0C701B60120E030E05D
:100B600040EC5FE30E947108882314F0C2600BC060
:100B7000C701B60120E030E040E05FE30E94710869
:100B800088230CF0C160F8018081882309F4C068D3
:100B9000F8018181882309F4C8608C2FCF911F91BF
:100BA0000F91FF90EF90DF90CF900895F8940E94FE
:100BB000270112981398289829980A980B9820983A
:100BC000219883B7817F846083BF83B7816083BFAF
:100BD00010927A0088E10FB6F8948093600010922A
:100BE00060000FBE85B7806685BF8F7D85BF789416
:100BF000889583B78E7F83BF0E947B010895CF9332
:100C0000DF93CDB7DEB72A970FB6F894DEBF0FBEDD
:100C1000CDBF0E947B0180911A018823E1F50E94DB
:100C2000CA0190931C0180931B010E942F02909394
:100C30001E0180931D019C01B901882777FD8095D5
:100C4000982F0E949C076B017C0160911B017091A1
:100C50001C01882777FD8095982F0E949C079B0197
:100C6000AC01C701B6010E94DB066B017C01CE011D
:100C70000196B701A6010E94950220911B013091B7
:100C80001C0100911D0110911E01CE010196B701BA
:100C9000A6010E94D5020E9492008FE39DE0A3E08E
:100CA00081509040A040E1F700C000008FE39DE03C
:100CB000A3E081509040A040E1F700C00000809187
:100CC0001901813009F0A7CF0E94D605A4CF505852
:100CD000BB27AA270ED0CBC1BCD130F0C1D120F0A8
:100CE00031F49F3F11F41EF48CC10EF4E095E7FB44
:100CF00082C1E92FCDD180F3BA1762077307840749
:100D0000950718F071F49EF5E5C10EF4E0950B2EF1
:100D1000BA2FA02D0B01B90190010C01CA01A0014D
:100D20001124FF27591B99F0593F50F4503E68F1A8
:100D30001A16F040A22F232F342F4427585FF3CFE9
:100D4000469537952795A795F0405395C9F77EF4BA
:100D50001F16BA0B620B730B840BBAF09150A1F003
:100D6000FF0FBB1F661F771F881FC2F70EC0BA0F89
:100D7000621F731F841F48F4879577956795B79511
:100D8000F7959E3F08F0B3CF9395880F08F0992709
:100D9000EE0F9795879508955CD158F080E891E023
:100DA00009F49EEF5DD128F040E851E059F45EEF80
:100DB00009C027C18FC1E92FE0786AD168F3092EF5
:100DC000052AC1F3261737074807590738F00E2EB2
:100DD00007F8E02569F0E025E0640AC0EF6307F852
:100DE000009407FADB01B9019D01DC01CA01AD01E4
:100DF000EF9347D03CD10AD05F91552331F02BEDD2
:100E00003FE049E450FD49EC63CF0895DF93DD27CF
:100E1000B92FBF7740E85FE31616170648075B0750
:100E200010F4D92F62D19F938F937F936F93C7D183
:100E3000ECE8F0E0E9D01BD12F913F914F915F9109
:100E400067D1DD2349F09058A2EA2AED3FE049EC52
:100E50005FE3D0785D274DDFDF9109C1A8D008F4AA
:100E600081E008950CD003C1FBD040F0F2D030F007
:100E700021F45F3F19F0BFC051112DC1C2C008D18C
:100E800098F39923C9F35523B1F3951B550BBB2751
:100E9000AA2762177307840738F09F5F5F4F220FFE
:100EA000331F441FAA1FA9F333D00E2E3AF0E0E8F7
:100EB00030D091505040E695001CCAF729D0FE2F43
:100EC00027D0660F771F881FBB1F261737074807D5
:100ED000AB07B0E809F0BB0B802DBF01FF2793588B
:100EE0005F4F2AF09E3F510568F085C0F4C05F3F18
:100EF000ECF3983EDCF3869577956795B795F79573
:100F00009F5FC9F7880F911D9695879597F908956A
:100F1000E1E0660F771F881FBB1F62177307840706
:100F2000BA0720F0621B730B840BBA0BEE1F88F715
:100F3000E0950895E89409C097FB3EF4909580955C
:100F4000709561957F4F8F4F9F4F9923A9F0F92F8F
:100F500096E9BB279395F695879577956795B7950D
:100F6000F111F8CFFAF4BB0F11F460FF1BC06F5FF3
:100F70007F4F8F4F9F4F16C0882311F096E911C005
:100F8000772321F09EE8872F762F05C0662371F026
:100F900096E8862F70E060E02AF09A95660F771F3A
:100FA000881FDAF7880F9695879597F90895990F16
:100FB0000008550FAA0BE0E8FEEF16161706E80723
:100FC000F907C0F012161306E407F50798F0621B44
:100FD000730B840B950B39F40A2661F0232B242B19
:100FE000252B21F408950A2609F4A140A6958FEF38
:100FF000811D811D089597F99F6780E870E060E08A
:1010000008959FEF80EC0895DF93CF931F930F9384
:10101000FF92EF92DF927B018C01689405C0DA2E7B
:10102000EF0176D0FE01E894A59125913591459187
:101030005591AEF3EF015DDEFE019701A801DA9450
:1010400079F7DF90EF90FF900F911F91CF91DF9193
:10105000089500240A94161617061806090608951E
:1010600000240A9412161306140605060895092E84
:101070000394000C11F4882352F0BB0F40F4BF2BF3
:1010800011F460FF04C06F5F7F4F8F4F9F4F089533
:1010900057FD9058440F551F59F05F3F71F0479529
:1010A000880F97FB991F61F09F3F79F0879508950E
:1010B000121613061406551FF2CF4695F1DF08C02D
:1010C000161617061806991FF1CF8695710561054A
:1010D00008940895E894BB2766277727CB0197F9F2
:1010E000089565DF08F48FEF08959B01AC0160E07F
:1010F00070E080E89FE3B6CE0BD0B9CFAADF28F02E
:10110000AFDF18F0952309F076CF7BCF1124E3CF22
:10111000BFDFA0F3959FD1F3950F50E0551F629F5D
:10112000F001729FBB27F00DB11D639FAA27F00D40
:10113000B11DAA1F649F6627B00DA11D661F829F67
:101140002227B00DA11D621F739FB00DA11D621F4C
:10115000839FA00D611D221F749F3327A00D611D69
:10116000231F849F600D211D822F762F6A2F11244B
:101170009F5750408AF0E1F088234AF0EE0FFF1F9E
:10118000BB1F661F771F881F91505040A9F79E3FD5
:10119000510570F030CF9FCF5F3FECF3983EDCF30A
:1011A000869577956795B795F795E7959F5FC1F712
:1011B000FE2B880F911D9695879597F908959B01B1
:1011C000AC019ACFFB01DC018D91019080190110D7
:0A11D000D9F3990B0895F894FFCFAE
:0611DA004750524D430096
:00000001FF
