:100000000C9446000C9466000C9466000C946600F8
:100010000C9466000C9466000C9466000C946600C8
:100020000C9466000C9466000C9466000C946600B8
:100030000C9466000C9466000C9466000C946600A8
:100040000C9466000C9466000C9466000C94660098
:100050000C9466000C9466000C9466000C94660088
:100060000C9466000C9466000C9466000C94660078
:100070000C9466000C9466000C9466000C94660068
:100080000C9466000C9466000C94660011241FBE4C
:10009000CFEFD0E4DEBFCDBF11E0A0E0B1E0ECE6F1
:1000A000F1E000E00BBF02C007900D92A030B10755
:1000B000D9F71BBE11E0A0E0B1E001C01D92A03055
:1000C000B107E1F70E9486000C94B4000C94000084
:1000D000EAE7F0E08081806880830895ECE7F0E053
:1000E0009081907F90839081892B8083EAE7F0E074
:1000F000808180648083808186FDFDCFECE7F0E025
:100100008081806280838091790008958CE090E006
:100110000E9498000E94680080E00E946E000E9489
:10012000A40087EA91E60197F1F700C00000F4CF40
:10013000519A9093C5008093C40088E18093C100D8
:100140008EE08093C2000895E0ECF0E0908195FF8E
:10015000FDCF8093C6000895E0ECF0E08081882315
:0C016000ECF78091C6000895F894FFCFE2
:00000001FF
