:100000000C9446000C9466000C9466000C946600F8
:100010000C9466000C9466000C9466000C946600C8
:100020000C9466000C9466000C9466000C946600B8
:100030000C9466000C9466000C9466000C946600A8
:100040000C9466000C9466000C9466000C94660098
:100050000C9466000C9466000C9466000C94660088
:100060000C9466000C9466000C9466000C94660078
:100070000C9466000C9466000C9466000C94660068
:100080000C9466000C9466000C94660011241FBE4C
:10009000CFEFD0E4DEBFCDBF11E0A0E0B1E0EAE8F1
:1000A000F2E000E00BBF02C007900D92A030B10754
:1000B000D9F71BBE11E0A0E0B1E001C01D92A03055
:1000C000B107E1F70E9486000C9443010C940000F4
:1000D000EAE7F0E08081806880830895ECE7F0E053
:1000E0009081907F90839081892B8083EAE7F0E074
:1000F000808180648083808186FDFDCFECE7F0E025
:100100008081806280838091790008958CE090E006
:100110000E9427010E94B7000E94680081E40E94AB
:10012000BC0087EA91E60197F1F700C00000F6CF26
:1001300081E085BD8093B10084B1886184B98AB1C2
:10014000806C8AB9089591EC94BD87BD089591E3C0
:1001500094BD88BD089591EC9093B0008093B30056
:10016000089591E39093B0008093B400089580EADD
:1001700084B981E58CBD0895CF938EBD0DB407FE83
:10018000FDCFCEB580E090E00E9433018C2F90E04F
:100190000E943301CF9108950F931F93CF93DF9364
:1001A00084EA8093BC00ECEBF0E080818823ECF7DC
:1001B00082E48093BB00ECEBF0E084E880838081F4
:1001C00088233CF0ABEBB0E091E49C9380818823E2
:1001D000E4F7ECEBF0E084E88083808188232CF066
:1001E00094E9908380818823E4F78BE594E4019778
:1001F000F1F700C0000084EA8093BC00ECEBF0E073
:1002000080818823ECF783E48093BB00ECEBF0E083
:1002100084E88083808188232CF090EC9083808117
:100220008823E4F7CBEBD0E088810E9433010CEB0C
:1002300010E080E8F801808388810E94330184E91E
:10024000F8018083DF91CF911F910F910895519A0A
:100250009093C5008093C40088E18093C1008EE034
:100260008093C2000895E0ECF0E0908195FFFDCF0F
:100270008093C6000895E0ECF0E080818823ECF7DD
:0A0280008091C6000895F894FFCFA6
:00000001FF
