S00E0000666F72646F6E2E737265638E
S11300000C9446000C9466000C9466000C946600F4
S11300100C9466000C9466000C9466000C946600C4
S11300200C9466000C9466000C9466000C946600B4
S11300300C9466000C9466000C9466000C946600A4
S11300400C9466000C9466000C9466000C94660094
S11300500C9466000C9466000C9466000C94660084
S11300600C9466000C9466000C9466000C94660074
S11300700C9466000C9466000C9466000C94660064
S11300800C9466000C9466000C94660011241FBE48
S1130090CFEFD0E4DEBFCDBF11E0A0E0B1E0EEEBE6
S11300A0F1E000E00BBF02C007900D92A030B10751
S11300B0D9F71BBE11E0A0E0B1E001C01D92A03051
S11300C0B107E1F70E9486000C94DD000C94000057
S11300D0EAE7F0E08081806880830895ECE7F0E04F
S11300E09081907F90839081892B8083EAE7F0E070
S11300F0808180648083808186FDFDCFECE7F0E021
S11301008081806280838091790008958CE090E002
S11301100E94C1000E94680080E00E946E000E945C
S1130120CD0087EA91E60197F1F700C00000F4CF13
S113013081E085BD8093B10084B1886184B98AB1BE
S1130140806C8AB9089591EC94BD87BD089591E3BC
S113015094BD88BD089591EC9093B0008093B30052
S1130160089591E39093B0008093B400089580EAD9
S113017084B981E58CBD08958EBD0DB407FEFDCF15
S11301800895519A9093C5008093C40088E18093A8
S1130190C1008EE08093C2000895E0ECF0E090810D
S11301A095FFFDCF8093C6000895E0ECF0E08081D8
S11101B08823ECF78091C6000895F894FFCFE1
S9030000FC
